S00B0000326E642E7372656315
S11300000C942A000C9447000C9447000C9447006D
S11300100C9447000C9447000C9447000C94470040
S11300200C9447000C9447000C9447000C94470030
S11300300C9447000C9447000C9447000C94470020
S11300400C9447000C9447000C9447000C94470010
S11300500C94470011241FBECFE5D4E0DEBFCDBF12
S113006010E0A0E6B0E0E4EAFEE002C005900D92E4
S1130070A43AB107D9F720E0A4EAB0E001C01D9288
S1130080A83AB207E1F70E94F6060C9450070C94C4
S11300900000959A0000000082B3807C82BB089522
S11300A017BA979A82B3887F82BBC79B04C00E9409
S11300B04900C799FCCF8FEF87BB0895CF93C82F12
S11300C00E945000C8BB82B38B7782BB0E94490058
S11300D018BACF910895CF93C82F0E945000C8BB7F
S11300E09798929A0E94490018BACF910895CF9395
S11300F0DF93EC018881882331F021960E946B0004
S113010089918111FBCFDF91CF9108950F931F93B4
S1130110CF93DF9381E08093A5008BE792E9019769
S1130120F1F700C00000C0E6D0E005E012E021C015
S11301308091A40080580E945E0089E690E00E94AD
S1130140770099B38881981309C01093A5008BE7B1
S113015092E90197F1F700C000000BC099B38885BC
S1130160981307C08CB59DB5893E9D4F10F0009340
S1130170A5008091A5008130D9F2C0E6D0E005E069
S113018013E021C08091A40080580E945E008BE699
S113019090E00E94770099B38881981309C0109366
S11301A0A5008BE792E90197F1F700C000000BC0AE
S11301B099B38885981307C08CB59DB5893E9D4F2A
S11301C010F00093A5008091A5008230D9F2C0E61A
S11301D0D0E005E014E021C08091A40080580E9482
S11301E05E008DE690E00E94770099B388819813B1
S11301F009C01093A5008BE792E90197F1F700C0BD
S113020000000BC099B38885981307C08CB59DB5C1
S1130210893E9D4F10F00093A5008091A500833086
S1130220D9F2C0E6D0E005E011E021C08091A4003D
S113023080580E945E008FE690E00E94770099B398
S11302408881981309C01093A5008BE49DE1019760
S1130250F1F700C000000BC099B38885981307C05C
S11302608CB59DB5893E9D4F10F00093A5008091FB
S1130270A5008430D9F2853091F499B38091680057
S113028098130DC08091A40091E0980F9093A4005E
S11302908F570E945E001DBC1CBC1092A500DF910C
S11302A0CF911F910F9108950F931F93CF93DF93D5
S11302B081E08093A5008BE792E90197F1F700C0F4
S11302C00000C0E6D0E005E012E021C08091A40067
S11302D080580E945E0081E790E00E94770099B305
S11302E08981981309C01093A5008BE792E90197BF
S11302F0F1F700C000000BC099B38885981307C0BC
S11303008CB59DB5893E9D4F10F00093A50080915A
S1130310A5008130D9F2C0E6D0E005E013E021C0A9
S11303208091A40080580E945E0083E790E00E94C0
S1130330770099B38981981309C01093A5008BE7BE
S113034092E90197F1F700C000000BC099B38885CA
S1130350981307C08CB59DB5893E9D4F10F000934E
S1130360A5008091A5008230D9F2C0E6D0E005E076
S113037014E021C08091A40080580E945E0085E7AB
S113038090E00E94770099B38981981309C0109373
S1130390A5008BE792E90197F1F700C000000BC0BC
S11303A099B38885981307C08CB59DB5893E9D4F38
S11303B010F00093A5008091A5008330D9F2C0E627
S11303C0D0E005E011E021C08091A40080580E9493
S11303D05E0087E790E00E94770099B389819813C3
S11303E009C01093A5008BE49DE10197F1F700C0CB
S11303F000000BC099B38885981307C08CB59DB5D0
S1130400893E9D4F10F00093A5008091A500843093
S1130410D9F2853091F499B38091680098130DC096
S11304208091A40091E0980F9093A4008F570E94AC
S11304305E001DBC1CBC1092A500DF91CF911F91E2
S11304400F9108950F931F93CF93DF9381E08093CF
S1130450A5008BE792E90197F1F700C00000C0E620
S1130460D0E005E012E021C08091A40080580E94F1
S11304705E0089E790E00E94770099B38A8198131F
S113048009C01093A5008BE792E90197F1F700C02A
S113049000000BC099B38885981307C08CB59DB52F
S11304A0893E9D4F10F00093A5008091A5008130F6
S11304B0D9F2C0E6D0E005E013E021C08091A400A9
S11304C080580E945E008BE790E00E94770099B309
S11304D08A81981309C01093A5008BE792E90197CC
S11304E0F1F700C000000BC099B38885981307C0CA
S11304F08CB59DB5893E9D4F10F00093A500809169
S1130500A5008230D9F2C0E6D0E005E014E021C0B5
S11305108091A40080580E945E008DE790E00E94C4
S1130520770099B38A81981309C01093A5008BE7CB
S113053092E90197F1F700C000000BC099B38885D8
S1130540981307C08CB59DB5893E9D4F10F000935C
S1130550A5008091A5008330D9F2C0E6D0E005E083
S113056011E021C08091A40080580E945E008FE7B2
S113057090E00E94770099B38A81981309C0109380
S1130580A5008BE49DE10197F1F700C000000BC0CA
S113059099B38885981307C08CB59DB5893E9D4F46
S11305A010F00093A5008091A5008430D9F2853025
S11305B091F499B38091680098130DC08091A400C0
S11305C091E0980F9093A4008F570E945E001DBC89
S11305D01CBC1092A500DF91CF911F910F9108953B
S11305E00F931F93CF93DF9381E08093A5008BE754
S11305F092E90197F1F700C00000C0E6D0E005E001
S113060012E021C08091A40080580E945E0081E81D
S113061090E00E94770099B38B81981309C01093DE
S1130620A5008BE792E90197F1F700C000000BC029
S113063099B38885981307C08CB59DB5893E9D4FA5
S113064010F00093A5008091A5008130D9F2C0E696
S1130650D0E005E013E021C08091A40080580E94FE
S11306605E0083E890E00E94770099B38B81981331
S113067009C01093A5008BE792E90197F1F700C038
S113068000000BC099B38885981307C08CB59DB53D
S1130690893E9D4F10F00093A5008091A500823003
S11306A0D9F2C0E6D0E005E014E021C08091A400B6
S11306B080580E945E0085E890E00E94770099B31C
S11306C08B81981309C01093A5008BE792E90197D9
S11306D0F1F700C000000BC099B38885981307C0D8
S11306E08CB59DB5893E9D4F10F00093A500809177
S11306F0A5008330D9F2C0E6D0E005E011E021C0C6
S11307008091A40080580E945E0087E890E00E94D7
S1130710770099B38B81981309C01093A5008BE4DB
S11307209DE10197F1F700C000000BC099B38885E3
S1130730981307C08CB59DB5893E9D4F10F000936A
S1130740A5008091A5008430D9F2853091F499B345
S11307508091680098130DC08091A40091E0980FD7
S11307609093A4008F570E945E001DBC1CBC109285
S1130770A500DF91CF911F910F9108950F931F93BF
S1130780CF93DF9381E08093A5008BE792E90197F3
S1130790F1F700C00000C0E6D0E005E012E021C09F
S11307A08091A40080580E945E0089E890E00E9435
S11307B0770099B38C81981309C01093A5008BE737
S11307C092E90197F1F700C000000BC099B3888546
S11307D0981307C08CB59DB5893E9D4F10F00093CA
S11307E0A5008091A5008130D9F2C0E6D0E005E0F3
S11307F013E021C08091A40080580E945E008BE821
S113080090E00E94770099B38C81981309C01093EB
S1130810A5008BE792E90197F1F700C000000BC037
S113082099B38885981307C08CB59DB5893E9D4FB3
S113083010F00093A5008091A5008230D9F2C0E6A3
S1130840D0E005E014E021C08091A40080580E940B
S11308505E008DE890E00E94770099B38C81981334
S113086009C01093A5008BE792E90197F1F700C046
S113087000000BC099B38885981307C08CB59DB54B
S1130880893E9D4F10F00093A5008091A500833010
S1130890D9F2C0E6D0E005E011E021C08091A400C7
S11308A080580E945E008FE890E00E94770099B320
S11308B08C81981309C01093A5008BE49DE10197E6
S11308C0F1F700C000000BC099B38885981307C0E6
S11308D08CB59DB5893E9D4F10F00093A500809185
S11308E0A5008430D9F2853091F499B380916800E1
S11308F098130DC08091A40091E0980F9093A400E8
S11309008F570E945E001DBC1CBC1092A500DF9195
S1130910CF911F910F9108950F931F93CF93DF935E
S113092081E08093A5008BE792E90197F1F700C07D
S11309300000C0E6D0E005E012E021C08091A400F0
S113094080580E945E0081E990E00E94770099B38C
S11309508D81981309C01093A5008BE792E9019744
S1130960F1F700C000000BC099B38885981307C045
S11309708CB59DB5893E9D4F10F00093A5008091E4
S1130980A5008130D9F2C0E6D0E005E013E021C033
S11309908091A40080580E945E0083E990E00E9448
S11309A0770099B38D81981309C01093A5008BE744
S11309B092E90197F1F700C000000BC099B3888554
S11309C0981307C08CB59DB5893E9D4F10F00093D8
S11309D0A5008091A5008230D9F2C0E6D0E005E000
S11309E014E021C08091A40080580E945E0085E933
S11309F090E00E94770099B38D81981309C01093F9
S1130A00A5008BE792E90197F1F700C000000BC045
S1130A1099B38885981307C08CB59DB5893E9D4FC1
S1130A2010F00093A5008091A5008330D9F2C0E6B0
S1130A30D0E005E011E021C08091A40080580E941C
S1130A405E0087E990E00E94770099B38D81981346
S1130A5009C01093A5008BE49DE10197F1F700C054
S1130A6000000BC099B38885981307C08CB59DB559
S1130A70893E9D4F10F00093A5008091A50084301D
S1130A80D9F2853091F499B38091680098130DC020
S1130A908091A40091E0980F9093A4008F570E9436
S1130AA05E001DBC1CBC1092A500DF91CF911F916C
S1130AB00F9108950F931F93CF93DF9381E0809359
S1130AC0A5008BE792E90197F1F700C00000C0E6AA
S1130AD0D0E005E012E021C08091A40080580E947B
S1130AE05E0089E990E00E94770099B38E819813A3
S1130AF009C01093A5008BE792E90197F1F700C0B4
S1130B0000000BC099B38885981307C08CB59DB5B8
S1130B10893E9D4F10F00093A5008091A50081307F
S1130B20D9F2C0E6D0E005E013E021C08091A40032
S1130B3080580E945E008BE990E00E94770099B390
S1130B408E81981309C01093A5008BE792E9019751
S1130B50F1F700C000000BC099B38885981307C053
S1130B608CB59DB5893E9D4F10F00093A5008091F2
S1130B70A5008230D9F2C0E6D0E005E014E021C03F
S1130B808091A40080580E945E008DE990E00E944C
S1130B90770099B38E81981309C01093A5008BE751
S1130BA092E90197F1F700C000000BC099B3888562
S1130BB0981307C08CB59DB5893E9D4F10F00093E6
S1130BC0A5008091A5008330D9F2C0E6D0E005E00D
S1130BD011E021C08091A40080580E945E008FE93A
S1130BE090E00E94770099B38E81981309C0109306
S1130BF0A5008BE49DE10197F1F700C000000BC054
S1130C0099B38885981307C08CB59DB5893E9D4FCF
S1130C1010F00093A5008091A5008430D9F28530AE
S1130C2091F499B38091680098130DC08091A40049
S1130C3091E0980F9093A4008F570E945E001DBC12
S1130C401CBC1092A500DF91CF911F910F910895C4
S1130C500F931F93CF93DF9381E08093A5008BE7DD
S1130C6092E90197F1F700C00000C0E6D0E005E08A
S1130C7012E021C08091A40080580E945E0081EAA5
S1130C8090E00E94770099B38F81981309C0109364
S1130C90A5008BE792E90197F1F700C000000BC0B3
S1130CA099B38885981307C08CB59DB5893E9D4F2F
S1130CB010F00093A5008091A5008130D9F2C0E620
S1130CC0D0E005E013E021C08091A40080580E9488
S1130CD05E0081EA90E00E94770099B38F819813B7
S1130CE009C01093A5008BE792E90197F1F700C0C2
S1130CF000000BC099B38885981307C08CB59DB5C7
S1130D00893E9D4F10F00093A5008091A50082308C
S1130D10D9F2C0E6D0E005E014E021C08091A4003F
S1130D2080580E945E0081EA90E00E94770099B3A7
S1130D308F81981309C01093A5008BE792E901975E
S1130D40F1F700C000000BC099B38885981307C061
S1130D508CB59DB5893E9D4F10F00093A500809100
S1130D60A5008330D9F2C0E6D0E005E011E021C04F
S1130D708091A40080580E945E0081EA90E00E9465
S1130D80770099B38F81981309C01093A5008BE461
S1130D909DE10197F1F700C000000BC099B388856D
S1130DA0981307C08CB59DB5893E9D4F10F00093F4
S1130DB0A5008091A5008430D9F2853091F499B3CF
S1130DC08091680098130DC08091A40091E0980F61
S1130DD09093A4008F570E945E001DBC1CBC10920F
S1130DE0A500DF91CF911F910F91089581B3846A7B
S1130DF081BB85EA9EE00197F1F700C0000081E025
S1130E000E945E008DEE92E00197F1F700C00000B1
S1130E1088E30E945E0090E19A95F1F700C08EE0AD
S1130E200E945E0080E18A95F1F700C01ABA8FEF44
S1130E308BBB83E08EBDC0E6D0E01092A50099B3D1
S1130E408881981302C00E94860099B389819813FF
S1130E5002C00E94540199B38A81981302C00E946F
S1130E60220299B38B81981302C00E94F00299B3B5
S1130E708C81981302C00E94BE0399B38D8198138C
S1130E8002C00E948C0499B38E81981302C00E9400
S1130E905A0599B38F819813D0CF0E942806CDCFDD
S1070EA0F894FFCFF0
S1130EA4FEFDFBF7EFDFBF7FFF61006200630064B8
S1130EB400650066006700680069006A006B006CE6
S1130EC4006D006E006F0070007100720073007496
S1130ED400750076007700780079007A002D0023ED
S1070EE400200000E6
S9030000FC
